{
  "contractName": "Graph",
  "abi": [
    {
      "inputs": [],
      "stateMutability": "nonpayable",
      "type": "constructor"
    },
    {
      "inputs": [
        {
          "internalType": "address",
          "name": "",
          "type": "address"
        },
        {
          "internalType": "uint256",
          "name": "",
          "type": "uint256"
        }
      ],
      "name": "access",
      "outputs": [
        {
          "internalType": "string",
          "name": "",
          "type": "string"
        }
      ],
      "stateMutability": "view",
      "type": "function",
      "constant": true
    },
    {
      "inputs": [
        {
          "internalType": "string",
          "name": "",
          "type": "string"
        }
      ],
      "name": "graphOwner",
      "outputs": [
        {
          "internalType": "address",
          "name": "",
          "type": "address"
        }
      ],
      "stateMutability": "view",
      "type": "function",
      "constant": true
    },
    {
      "inputs": [
        {
          "internalType": "string",
          "name": "",
          "type": "string"
        }
      ],
      "name": "graphPrice",
      "outputs": [
        {
          "internalType": "uint256",
          "name": "",
          "type": "uint256"
        }
      ],
      "stateMutability": "view",
      "type": "function",
      "constant": true
    },
    {
      "inputs": [
        {
          "internalType": "string",
          "name": "",
          "type": "string"
        }
      ],
      "name": "purchases",
      "outputs": [
        {
          "internalType": "uint256",
          "name": "",
          "type": "uint256"
        }
      ],
      "stateMutability": "view",
      "type": "function",
      "constant": true
    },
    {
      "inputs": [],
      "name": "userStartBalance",
      "outputs": [
        {
          "internalType": "uint256",
          "name": "",
          "type": "uint256"
        }
      ],
      "stateMutability": "view",
      "type": "function",
      "constant": true
    },
    {
      "inputs": [
        {
          "internalType": "uint256",
          "name": "",
          "type": "uint256"
        }
      ],
      "name": "users",
      "outputs": [
        {
          "internalType": "address",
          "name": "",
          "type": "address"
        }
      ],
      "stateMutability": "view",
      "type": "function",
      "constant": true
    },
    {
      "inputs": [
        {
          "internalType": "address",
          "name": "user",
          "type": "address"
        }
      ],
      "name": "login",
      "outputs": [
        {
          "internalType": "bool",
          "name": "",
          "type": "bool"
        }
      ],
      "stateMutability": "nonpayable",
      "type": "function"
    },
    {
      "inputs": [
        {
          "internalType": "address",
          "name": "user",
          "type": "address"
        },
        {
          "internalType": "string",
          "name": "graph",
          "type": "string"
        }
      ],
      "name": "hasAccess",
      "outputs": [
        {
          "internalType": "bool",
          "name": "",
          "type": "bool"
        }
      ],
      "stateMutability": "view",
      "type": "function",
      "constant": true
    },
    {
      "inputs": [
        {
          "internalType": "string",
          "name": "graph",
          "type": "string"
        }
      ],
      "name": "buyAccess",
      "outputs": [
        {
          "internalType": "bool",
          "name": "",
          "type": "bool"
        }
      ],
      "stateMutability": "payable",
      "type": "function",
      "payable": true
    },
    {
      "inputs": [
        {
          "internalType": "string",
          "name": "graph",
          "type": "string"
        },
        {
          "internalType": "uint256",
          "name": "price",
          "type": "uint256"
        }
      ],
      "name": "newGraph",
      "outputs": [
        {
          "internalType": "bool",
          "name": "",
          "type": "bool"
        }
      ],
      "stateMutability": "nonpayable",
      "type": "function"
    },
    {
      "inputs": [
        {
          "internalType": "string",
          "name": "graph",
          "type": "string"
        }
      ],
      "name": "purchasesCount",
      "outputs": [
        {
          "internalType": "uint256",
          "name": "",
          "type": "uint256"
        }
      ],
      "stateMutability": "view",
      "type": "function",
      "constant": true
    },
    {
      "inputs": [
        {
          "internalType": "string",
          "name": "graph",
          "type": "string"
        }
      ],
      "name": "getPrice",
      "outputs": [
        {
          "internalType": "uint256",
          "name": "",
          "type": "uint256"
        }
      ],
      "stateMutability": "view",
      "type": "function",
      "constant": true
    },
    {
      "inputs": [
        {
          "internalType": "string",
          "name": "graph",
          "type": "string"
        },
        {
          "internalType": "uint256",
          "name": "price",
          "type": "uint256"
        }
      ],
      "name": "setPrice",
      "outputs": [
        {
          "internalType": "bool",
          "name": "",
          "type": "bool"
        }
      ],
      "stateMutability": "nonpayable",
      "type": "function"
    }
  ],
  "bytecode": "0x60806040526798a7d9b8314c000060005534801561001c57600080fd5b506117608061002c6000396000f3fe6080604052600436106100c15760003560e01c8063524f38891161007f578063a8ccb29111610059578063a8ccb291146102de578063b543cf7a1461031b578063f0da002614610358578063f581fb6814610383576100c1565b8063524f3889146102345780636f9a98fb14610271578063a834c43d146102ae576100c1565b80620996c7146100c657806322e011921461010357806330191efd1461014057806335a6861a1461017d578063365b98b2146101ba5780633d3ef548146101f7575b600080fd5b3480156100d257600080fd5b506100ed60048036038101906100e89190610e63565b6103c0565b6040516100fa9190610eda565b60405180910390f35b34801561010f57600080fd5b5061012a60048036038101906101259190610e63565b6104be565b6040516101379190610eda565b60405180910390f35b34801561014c57600080fd5b5061016760048036038101906101629190610ef5565b610599565b6040516101749190610f7f565b60405180910390f35b34801561018957600080fd5b506101a4600480360381019061019f9190610fc6565b6105e2565b6040516101b19190610eda565b60405180910390f35b3480156101c657600080fd5b506101e160048036038101906101dc9190610ff3565b610758565b6040516101ee9190610f7f565b60405180910390f35b34801561020357600080fd5b5061021e60048036038101906102199190610ef5565b610797565b60405161022b919061102f565b60405180910390f35b34801561024057600080fd5b5061025b60048036038101906102569190610ef5565b6107c5565b604051610268919061102f565b60405180910390f35b34801561027d57600080fd5b5061029860048036038101906102939190610ef5565b6107ed565b6040516102a5919061102f565b60405180910390f35b6102c860048036038101906102c39190610ef5565b61081b565b6040516102d59190610eda565b60405180910390f35b3480156102ea57600080fd5b506103056004803603810190610300919061104a565b610a2d565b6040516103129190610eda565b60405180910390f35b34801561032757600080fd5b50610342600480360381019061033d9190610ef5565b610bec565b60405161034f919061102f565b60405180910390f35b34801561036457600080fd5b5061036d610c14565b60405161037a919061102f565b60405180910390f35b34801561038f57600080fd5b506103aa60048036038101906103a591906110a6565b610c1a565b6040516103b79190611165565b60405180910390f35b6000336002846040516103d391906111c3565b908152602001604051809103902060006101000a81548173ffffffffffffffffffffffffffffffffffffffff021916908373ffffffffffffffffffffffffffffffffffffffff160217905550600460003373ffffffffffffffffffffffffffffffffffffffff1673ffffffffffffffffffffffffffffffffffffffff1681526020019081526020016000208390806001815401808255809150506001900390600052602060002001600090919091909150908161049091906113e6565b50816003846040516104a291906111c3565b9081526020016040518091039020819055506001905092915050565b60006002836040516104d091906111c3565b908152602001604051809103902060009054906101000a900473ffffffffffffffffffffffffffffffffffffffff1673ffffffffffffffffffffffffffffffffffffffff163373ffffffffffffffffffffffffffffffffffffffff161461056c576040517f08c379a000000000000000000000000000000000000000000000000000000000815260040161056390611504565b60405180910390fd5b8160038460405161057d91906111c3565b9081526020016040518091039020819055506001905092915050565b6002818051602081018201805184825260208301602085012081835280955050505050506000915054906101000a900473ffffffffffffffffffffffffffffffffffffffff1681565b600080600180549050905060005b81811015610687578373ffffffffffffffffffffffffffffffffffffffff166001828154811061062357610622611524565b5b9060005260206000200160009054906101000a900473ffffffffffffffffffffffffffffffffffffffff1673ffffffffffffffffffffffffffffffffffffffff160361067457600092505050610753565b808061067f90611582565b9150506105f0565b506000808473ffffffffffffffffffffffffffffffffffffffff16670de0b6b3a76400006000546106b891906115ca565b6040516106c49061163d565b60006040518083038185875af1925050503d8060008114610701576040519150601f19603f3d011682016040523d82523d6000602084013e610706565b606091505b50915091508161074b576040517f08c379a00000000000000000000000000000000000000000000000000000000081526004016107429061169e565b60405180910390fd5b600193505050505b919050565b6001818154811061076857600080fd5b906000526020600020016000915054906101000a900473ffffffffffffffffffffffffffffffffffffffff1681565b6003818051602081018201805184825260208301602085012081835280955050505050506000915090505481565b60006003826040516107d791906111c3565b9081526020016040518091039020549050919050565b6005818051602081018201805184825260208301602085012081835280955050505050506000915090505481565b6000670de0b6b3a764000060038360405161083691906111c3565b90815260200160405180910390205461084f91906115ca565b3414610890576040517f08c379a00000000000000000000000000000000000000000000000000000000081526004016108879061170a565b60405180910390fd5b6000806002846040516108a391906111c3565b908152602001604051809103902060009054906101000a900473ffffffffffffffffffffffffffffffffffffffff1673ffffffffffffffffffffffffffffffffffffffff16346040516108f59061163d565b60006040518083038185875af1925050503d8060008114610932576040519150601f19603f3d011682016040523d82523d6000602084013e610937565b606091505b50915091508161097c576040517f08c379a00000000000000000000000000000000000000000000000000000000081526004016109739061169e565b60405180910390fd5b600460003373ffffffffffffffffffffffffffffffffffffffff1673ffffffffffffffffffffffffffffffffffffffff168152602001908152602001600020849080600181540180825580915050600190039060005260206000200160009091909190915090816109ed91906113e6565b506005846040516109fe91906111c3565b90815260200160405180910390206000815480929190610a1d90611582565b9190505550600192505050919050565b600080600460008573ffffffffffffffffffffffffffffffffffffffff1673ffffffffffffffffffffffffffffffffffffffff168152602001908152602001600020805480602002602001604051908101604052809291908181526020016000905b82821015610b3b578382906000526020600020018054610aae90611209565b80601f0160208091040260200160405190810160405280929190818152602001828054610ada90611209565b8015610b275780601f10610afc57610100808354040283529160200191610b27565b820191906000526020600020905b815481529060010190602001808311610b0a57829003601f168201915b505050505081526020019060010190610a8f565b50505050905060008151905060005b81811015610bde5784604051602001610b6391906111c3565b60405160208183030381529060405280519060200120838281518110610b8c57610b8b611524565b5b6020026020010151604051602001610ba491906111c3565b6040516020818303038152906040528051906020012003610bcb5760019350505050610be6565b8080610bd690611582565b915050610b4a565b506000925050505b92915050565b6000600582604051610bfe91906111c3565b9081526020016040518091039020549050919050565b60005481565b60046020528160005260406000208181548110610c3657600080fd5b90600052602060002001600091509150508054610c5290611209565b80601f0160208091040260200160405190810160405280929190818152602001828054610c7e90611209565b8015610ccb5780601f10610ca057610100808354040283529160200191610ccb565b820191906000526020600020905b815481529060010190602001808311610cae57829003601f168201915b505050505081565b6000604051905090565b600080fd5b600080fd5b600080fd5b600080fd5b6000601f19601f8301169050919050565b7f4e487b7100000000000000000000000000000000000000000000000000000000600052604160045260246000fd5b610d3a82610cf1565b810181811067ffffffffffffffff82111715610d5957610d58610d02565b5b80604052505050565b6000610d6c610cd3565b9050610d788282610d31565b919050565b600067ffffffffffffffff821115610d9857610d97610d02565b5b610da182610cf1565b9050602081019050919050565b82818337600083830152505050565b6000610dd0610dcb84610d7d565b610d62565b905082815260208101848484011115610dec57610deb610cec565b5b610df7848285610dae565b509392505050565b600082601f830112610e1457610e13610ce7565b5b8135610e24848260208601610dbd565b91505092915050565b6000819050919050565b610e4081610e2d565b8114610e4b57600080fd5b50565b600081359050610e5d81610e37565b92915050565b60008060408385031215610e7a57610e79610cdd565b5b600083013567ffffffffffffffff811115610e9857610e97610ce2565b5b610ea485828601610dff565b9250506020610eb585828601610e4e565b9150509250929050565b60008115159050919050565b610ed481610ebf565b82525050565b6000602082019050610eef6000830184610ecb565b92915050565b600060208284031215610f0b57610f0a610cdd565b5b600082013567ffffffffffffffff811115610f2957610f28610ce2565b5b610f3584828501610dff565b91505092915050565b600073ffffffffffffffffffffffffffffffffffffffff82169050919050565b6000610f6982610f3e565b9050919050565b610f7981610f5e565b82525050565b6000602082019050610f946000830184610f70565b92915050565b610fa381610f5e565b8114610fae57600080fd5b50565b600081359050610fc081610f9a565b92915050565b600060208284031215610fdc57610fdb610cdd565b5b6000610fea84828501610fb1565b91505092915050565b60006020828403121561100957611008610cdd565b5b600061101784828501610e4e565b91505092915050565b61102981610e2d565b82525050565b60006020820190506110446000830184611020565b92915050565b6000806040838503121561106157611060610cdd565b5b600061106f85828601610fb1565b925050602083013567ffffffffffffffff8111156110905761108f610ce2565b5b61109c85828601610dff565b9150509250929050565b600080604083850312156110bd576110bc610cdd565b5b60006110cb85828601610fb1565b92505060206110dc85828601610e4e565b9150509250929050565b600081519050919050565b600082825260208201905092915050565b60005b83811015611120578082015181840152602081019050611105565b60008484015250505050565b6000611137826110e6565b61114181856110f1565b9350611151818560208601611102565b61115a81610cf1565b840191505092915050565b6000602082019050818103600083015261117f818461112c565b905092915050565b600081905092915050565b600061119d826110e6565b6111a78185611187565b93506111b7818560208601611102565b80840191505092915050565b60006111cf8284611192565b915081905092915050565b7f4e487b7100000000000000000000000000000000000000000000000000000000600052602260045260246000fd5b6000600282049050600182168061122157607f821691505b602082108103611234576112336111da565b5b50919050565b60008190508160005260206000209050919050565b60006020601f8301049050919050565b600082821b905092915050565b60006008830261129c7fffffffffffffffffffffffffffffffffffffffffffffffffffffffffffffffff8261125f565b6112a6868361125f565b95508019841693508086168417925050509392505050565b6000819050919050565b60006112e36112de6112d984610e2d565b6112be565b610e2d565b9050919050565b6000819050919050565b6112fd836112c8565b611311611309826112ea565b84845461126c565b825550505050565b600090565b611326611319565b6113318184846112f4565b505050565b5b818110156113555761134a60008261131e565b600181019050611337565b5050565b601f82111561139a5761136b8161123a565b6113748461124f565b81016020851015611383578190505b61139761138f8561124f565b830182611336565b50505b505050565b600082821c905092915050565b60006113bd6000198460080261139f565b1980831691505092915050565b60006113d683836113ac565b9150826002028217905092915050565b6113ef826110e6565b67ffffffffffffffff81111561140857611407610d02565b5b6114128254611209565b61141d828285611359565b600060209050601f831160018114611450576000841561143e578287015190505b61144885826113ca565b8655506114b0565b601f19841661145e8661123a565b60005b8281101561148657848901518255600182019150602085019450602081019050611461565b868310156114a3578489015161149f601f8916826113ac565b8355505b6001600288020188555050505b505050505050565b7f4e6f7420616e206f776e65720000000000000000000000000000000000000000600082015250565b60006114ee600c836110f1565b91506114f9826114b8565b602082019050919050565b6000602082019050818103600083015261151d816114e1565b9050919050565b7f4e487b7100000000000000000000000000000000000000000000000000000000600052603260045260246000fd5b7f4e487b7100000000000000000000000000000000000000000000000000000000600052601160045260246000fd5b600061158d82610e2d565b91507fffffffffffffffffffffffffffffffffffffffffffffffffffffffffffffffff82036115bf576115be611553565b5b600182019050919050565b60006115d582610e2d565b91506115e083610e2d565b92508282026115ee81610e2d565b9150828204841483151761160557611604611553565b5b5092915050565b600081905092915050565b50565b600061162760008361160c565b915061163282611617565b600082019050919050565b60006116488261161a565b9150819050919050565b7f4661696c656420746f2073656e64204574686572000000000000000000000000600082015250565b60006116886014836110f1565b915061169382611652565b602082019050919050565b600060208201905081810360008301526116b78161167b565b9050919050565b7f496e636f72726563740000000000000000000000000000000000000000000000600082015250565b60006116f46009836110f1565b91506116ff826116be565b602082019050919050565b60006020820190508181036000830152611723816116e7565b905091905056fea26469706673582212206b2ffe3900d28e3022355d9345cca8cedf035d7365d3a2fa8a57831c4793b87764736f6c63430008130033",
  "immutableReferences": {},
  "source": "// SPDX-License-Identifier: MIT\npragma solidity >=0.4.22 <0.9.0;\n\n\ncontract Graph {\n    uint public userStartBalance = 11 ether;\n\n    address[] public users;\n    mapping(string => address) public graphOwner;\n    mapping(string => uint) public graphPrice;\n    mapping(address => string[]) public access;\n    mapping(string => uint) public purchases;\n\n    constructor() {}\n\n    function login(address user) public returns (bool) {\n        // Checks if user already has start payment\n        uint usersCount = users.length;\n        for (uint i = 0; i < usersCount; i++) {\n            if (users[i] == user) {\n                return false;\n            }\n        }\n\n        // Sending start balance\n\n        // Old method\n        // bool sent = payable(user).send(userStartBalance * 1 ether);\n\n        // New method\n        (bool sent, bytes memory data) = payable(user).call{value: userStartBalance * 1 ether}(\"\");\n        require(sent, \"Failed to send Ether\");\n\n        return true;\n    }\n\n    function hasAccess(address user, string memory graph) public view returns (bool) {\n        // Graphs which user bought\n        string[] memory userUnlockedGraphs = access[user];\n        uint graphsLength = userUnlockedGraphs.length;\n\n        // Check if needle graph unlocked\n        for (uint  i = 0; i < graphsLength; i++) {\n            if (keccak256(abi.encodePacked(userUnlockedGraphs[i])) == keccak256(abi.encodePacked(graph))) {\n                return true;\n            }\n        }\n\n        return false;\n    }\n\n    function buyAccess(string memory graph) public payable returns (bool) {\n        // Checks for correct amount\n        require(msg.value == graphPrice[graph] * 1 ether, \"Incorrect\");\n\n        // Transferring ether to graph owner\n        (bool sent, bytes memory data) = payable(graphOwner[graph]).call{value: msg.value}(\"\");\n\n        // Checks operation success\n        require(sent, \"Failed to send Ether\");\n\n        // Store access record\n        access[msg.sender].push(graph);\n        purchases[graph]++;\n\n        return true;\n    }\n\n    function newGraph(string memory graph, uint price) public returns (bool) {\n        graphOwner[graph] = msg.sender;\n        access[msg.sender].push(graph);\n        graphPrice[graph] = price;\n\n        return true;\n    }\n\n    function purchasesCount(string memory graph) public view returns (uint256) {\n        return purchases[graph];\n    }\n\n    function getPrice(string memory graph) public view returns (uint256) {\n        return graphPrice[graph];\n    }\n\n    function setPrice(string memory graph, uint price) public returns (bool) {\n        require(msg.sender == graphOwner[graph], \"Not an owner\");\n        graphPrice[graph] = price;\n\n        return true;\n    }\n}\n\n",
  "sourcePath": "/Users/shmd001/Desktop/graph_test/blockchain/contracts/Graph.sol",
  "compiler": {
    "name": "solc",
    "version": "0.8.19+commit.7dd6d404.Emscripten.clang"
  },
  "schemaVersion": "3.4.13",
  "updatedAt": "2023-05-24T17:38:39.738Z",
  "networkType": "ethereum",
  "devdoc": {
    "kind": "dev",
    "methods": {},
    "version": 1
  },
  "userdoc": {
    "kind": "user",
    "methods": {},
    "version": 1
  }
}